{
  "contractName": "FuelPurchase",
  "abi": [
    {
      "constant": true,
      "inputs": [],
      "name": "transactions",
      "outputs": [
        {
          "name": "",
          "type": "uint256"
        }
      ],
      "payable": false,
      "stateMutability": "view",
      "type": "function",
      "signature": "0x18015191"
    },
    {
      "constant": true,
      "inputs": [
        {
          "name": "",
          "type": "uint256"
        }
      ],
      "name": "tasks",
      "outputs": [
        {
          "name": "id",
          "type": "uint256"
        },
        {
          "name": "fuel",
          "type": "string"
        }
      ],
      "payable": false,
      "stateMutability": "view",
      "type": "function",
      "signature": "0x8d977672"
    },
    {
      "constant": true,
      "inputs": [
        {
          "name": "",
          "type": "address"
        }
      ],
      "name": "payments",
      "outputs": [
        {
          "name": "",
          "type": "uint256"
        }
      ],
      "payable": false,
      "stateMutability": "view",
      "type": "function",
      "signature": "0xe2982c21"
    },
    {
      "inputs": [],
      "payable": false,
      "stateMutability": "nonpayable",
      "type": "constructor",
      "signature": "constructor"
    },
    {
      "constant": false,
      "inputs": [
        {
          "name": "fuel",
          "type": "string"
        }
      ],
      "name": "chargeFuelNow",
      "outputs": [],
      "payable": true,
      "stateMutability": "payable",
      "type": "function",
      "signature": "0xc80ea100"
    }
  ],
  "bytecode": "0x60806040526000805534801561001457600080fd5b5061043e806100246000396000f3fe6080604052600436106100615763ffffffff7c01000000000000000000000000000000000000000000000000000000006000350416631801519181146100665780638d9776721461008d578063c80ea10014610136578063e2982c21146101de575b600080fd5b34801561007257600080fd5b5061007b61021e565b60408051918252519081900360200190f35b34801561009957600080fd5b506100b7600480360360208110156100b057600080fd5b5035610224565b6040518083815260200180602001828103825283818151815260200191508051906020019080838360005b838110156100fa5781810151838201526020016100e2565b50505050905090810190601f1680156101275780820380516001836020036101000a031916815260200191505b50935050505060405180910390f35b6101dc6004803603602081101561014c57600080fd5b81019060208101813564010000000081111561016757600080fd5b82018360208201111561017957600080fd5b8035906020019184600183028401116401000000008311171561019b57600080fd5b91908080601f0160208091040260200160405190810160405280939291908181526020018383808284376000920191909152509295506102c9945050505050565b005b3480156101ea57600080fd5b5061007b6004803603602081101561020157600080fd5b503573ffffffffffffffffffffffffffffffffffffffff16610365565b60005481565b60026020818152600092835260409283902080546001808301805487519281161561010002600019011695909504601f81018590048502820185019096528581529094919390929091908301828280156102bf5780601f10610294576101008083540402835291602001916102bf565b820191906000526020600020905b8154815290600101906020018083116102a257829003601f168201915b5050505050905082565b34333110156102d757600080fd5b600080546001908101808355604080518082018252828152602080820187815293865260028152919094208451815591518051929361031e93908501929190910190610377565b5050604051738efe98513b3253cefbd490d5685e45289dc11fd091503480156108fc02916000818181858888f19350505050158015610361573d6000803e3d6000fd5b5050565b60016020526000908152604090205481565b828054600181600116156101000203166002900490600052602060002090601f016020900481019282601f106103b857805160ff19168380011785556103e5565b828001600101855582156103e5579182015b828111156103e55782518255916020019190600101906103ca565b506103f19291506103f5565b5090565b61040f91905b808211156103f157600081556001016103fb565b9056fea165627a7a723058207c7cb5d80701e192c94aa897e4245173f11a455a9a379f48fd3ec5c16b2782e00029",
  "source": "// SPDX-License-Identifier: MIT\npragma solidity ^0.5.0;\n\ncontract FuelPurchase {\n    uint256 public transactions = 0;\n\n    mapping(address => uint256) public payments;\n\n    address payable constant station =\n        0x8Efe98513B3253ceFbd490D5685E45289dc11FD0;\n\n    struct Fuel {\n        uint256 id;\n        string fuel;\n    }\n\n    mapping(uint256 => Fuel) public tasks;\n\n    constructor() public {}\n\n    function chargeFuelNow(string memory fuel)\n        public\n        payable\n    {\n        require(msg.sender.balance >= msg.value);\n        transactions++;\n        tasks[transactions] = Fuel(transactions, fuel);\n        station.transfer(msg.value);\n        // (bool sent, bytes memory data) = _to.call{value: msg.value}(\"\");\n        // require(sent, \"Failed to send Ether\");\n    }\n}\n",
  "sourcePath": "/home/angel/Learning/Ethereum/Projects/car-fuel/Truffle/contracts/FuelPurchase.sol",
  "compiler": {
    "name": "solc",
    "version": "0.5.0+commit.1d4f565a.Emscripten.clang"
  },
  "schemaVersion": "3.0.1",
  "updatedAt": "2021-02-18T04:39:13.958Z",
  "devdoc": {
    "methods": {}
  },
  "userdoc": {
    "methods": {}
  }
}